:100000000C94DE010C9406020C9406020C94501819
:100010000C9450180C9450180C9406020C94060280
:100020000C9406020C9406020C9406020C94060230
:100030000C9406020C9406020C9406020C94060220
:100040000C9406180C9406020C94D4170C94AE175A
:100050000C9406020C9406020C9406020C94060200
:100060000C9406020C9406027C3C3E5E2B3D3F2F16
:100070005B5D3B2C2A225C000000000800020100AE
:100080000003040700000000000000000000000062
:10009000240027002A0000496E697469616C697A3E
:1000A0006174696F6E20646F6E652E00696E69748D
:1000B00069616C697A6174696F6E206661696C65EB
:1000C000642100496E697469616C697A696E6720A0
:1000D000534420636172642E2E2E002D2D2D2D3E53
:1000E0004461746120557064617465640041542BEF
:1000F000434950534855542D2D2D3E636C6F736505
:100100002074686520636F6E6E656374696F6E003E
:1001100041542B43495053454E442D2D2D3E62658D
:1001200067696E2073656E64206461746120746F0A
:100130002072656D6F74652073657276657200411B
:10014000542B43495053544152543D22544350225E
:100150002C226170692E7468696E67737065616BBB
:100160002E636F6D222C223830222D2D2D3E73747C
:100170006172742075702074686520636F6E6E659F
:100180006374696F6E0041542B434950535052546D
:100190003D300041542B43494653522D2D2D3E678F
:1001A0006574206C6F63616C2049502061647265D6
:1001B00073730041542B43494943522D2D2D3E6208
:1001C00072696E6720757020776972656C657373EC
:1001D00020636F6E6E656374696F6E0041542B43CC
:1001E0005354543D2261697274656C677072732E4A
:1001F000636F6D222D2D2D3E7374617274207461B6
:10020000736B20616E642073657474696E6720740B
:1002100068652041504E0041542B4349504D55587C
:100220003D300041542B43495053544154555300E1
:1002300041542B434950534855540041542B434794
:100240004154543F0041542B435245473F004154D1
:100250002B4350494E3F004154006572726F72202B
:100260006F70656E696E6720776561746865722E60
:10027000637376002D2D2D2D2D2D2D2D2D2D2D2D16
:100280002D2D2D2D2D2D2D2D2D2D2D2D2D2D2D2D9E
:100290002D2D2D2D2D2D005261696E20537461740A
:1002A000757320202020203A204E6F205261696E05
:1002B000005261696E205374617475732020202090
:1002C000203A205261696E696E67004C69676874F4
:1002D00020496E74656E73697479203A2000487500
:1002E0006D696469747920202020202020203A2024
:1002F0000054656D706572617475726520202020F0
:10030000203A200050726573656E742054696D65E3
:10031000202020203A200023237265636F7264201E
:100320000000206D00416C746974756465202020A4
:1003300020202020203A20004C6174697475646587
:1003400020202020202020203A20004C6F6E67695A
:1003500074756465202020202020203A20004C6FF6
:10036000636174696F6E204F6620576561746865BC
:10037000722053746174696F6E203A0000000000AF
:1003800023002600290000000000250028002B0083
:10039000040404040404040402020202020203032B
:1003A0000303030301020408102040800102040833
:1003B00010200102040810202D19B82011241FBE9E
:1003C000CFEFD8E0DEBFCDBF26E0ACE1B2E001C0A8
:1003D0001D92A139B207E1F712E0A0E0B1E0E6E238
:1003E000FCE402C005900D92AC31B107D9F711E0E1
:1003F000CDEDD1E004C02197FE010E94F223CC3D57
:10040000D107C9F70E943F1A0C9406260C940000ED
:10041000EF92FF920F931F93CF93DF938C017B0199
:10042000D0E0C0E0F701EC0FFD1F6491662361F09E
:10043000D801ED91FC910190F081E02DC801099562
:10044000892B11F02196EECFCE01DF91CF911F9134
:100450000F91FF90EF900895AF92BF92CF92DF92ED
:10046000EF92FF920F931F93CF93DF936C017B0169
:100470008B01040F151FEB015E01AE18BF08C017FA
:10048000D10759F06991D601ED91FC910190F0816D
:10049000E02DC6010995892B79F7C501DF91CF9130
:1004A0001F910F91FF90EF90DF90CF90BF90AF9092
:1004B0000895FC01538D448D252F30E0842F90E06A
:1004C000821B930B541710F0CF960895019708954F
:1004D000FC01918D828D981761F0A28DAE0FBF2F18
:1004E000B11D5D968C91928D9F5F9F73928F90E06E
:1004F00008958FEF9FEF0895FC01918D828D9817DD
:1005000031F0828DE80FF11D858D90E008958FEF19
:100510009FEF0895FC01918D228D892F90E0805CE2
:100520009F4F821B91098F739927089587E894E064
:100530000E948A0221E0892B09F420E0822F08958D
:1005400080E090E0892B29F00E94960281110C94A2
:1005500000000895FC01A48DA80FB92FB11DA35A66
:10056000BF4F2C91848D90E001968F739927848FD3
:10057000A689B7892C93A089B1898C9183708064F6
:100580008C93938D848D981306C00288F389E02D97
:1005900080818F7D80830895EF92FF920F931F9348
:1005A000CF93DF93EC0181E0888F9B8D8C8D981326
:1005B0001AC0E889F989808185FF15C09FB7F89432
:1005C000EE89FF896083E889F9898081837080647E
:1005D00080839FBF81E090E0DF91CF911F910F91C9
:1005E000FF90EF900895F62E0B8D10E00F5F1F4FD8
:1005F0000F731127E02E8C8D8E110CC00FB607FCE7
:10060000FACFE889F989808185FFF5CFCE010E9474
:10061000AA02F1CFEB8DEC0FFD2FF11DE35AFF4F36
:10062000F0829FB7F8940B8FEA89FB898081806202
:10063000CFCFCF93DF93EC01888D8823B9F0AA89BF
:10064000BB89E889F9898C9185FD03C0808186FD8D
:100650000DC00FB607FCF7CF8C9185FFF2CF8081DC
:1006600085FFEDCFCE010E94AA02E9CFDF91CF91A5
:100670000895833081F028F4813099F08230A9F018
:1006800008958730A9F08830C9F08430B1F48091A2
:1006900080008F7D03C0809180008F7780938000E1
:1006A000089584B58F7784BD089584B58F7DFBCF81
:1006B0008091B0008F778093B00008958091B00052
:1006C0008F7DF9CFCF93DF93282F30E0F901E858E1
:1006D000FF4F8491F901EC55FC4FD491F901E0579B
:1006E000FC4FC491CC23A1F081110E943903EC2F5F
:1006F000F0E0EE0FFF1FE458FC4FA591B491EC9190
:10070000ED2381E090E009F480E0DF91CF9108953E
:1007100080E090E0FACF1F93CF93DF93282F30E053
:10072000F901E858FF4F8491F901EC55FC4FD49141
:10073000F901E057FC4FC491CC23A9F0162F811189
:100740000E943903EC2FF0E0EE0FFF1FEA57FC4F39
:10075000A591B4918FB7F894EC91111108C0D09580
:10076000DE23DC938FBFDF91CF911F910895DE2BA5
:10077000F8CFCF93DF9390E0FC01EC55FC4F249130
:1007800080579C4FFC0184918823D1F090E0880F22
:10079000991FFC01E457FF4FA591B491FC01EA5762
:1007A000FC4FC591D49161110EC09FB7F8948C9104
:1007B000E22FE0958E238C932881E223E8839FBF6C
:1007C000DF91CF9108958FB7F894EC91E22BEC93E1
:1007D0008FBFF6CF60E0809170050E94B90361E0A1
:1007E00080916F050E948B03809170050E946203C7
:1007F0000197D1F360E080916F050C948B03CF9348
:10080000DF93CFE6D5E061E089810E94B90360E023
:1008100089810E948B0361E088810E948B0361E0E3
:1008200089810E948B0360E08981DF91CF910C94D4
:10083000B9033FB7F8948091680290916902A09142
:100840006A02B0916B0226B5A89B05C02F3F19F034
:100850000196A11DB11D3FBFBA2FA92F982F882740
:10086000BC01CD01620F711D811D911D42E0660F1B
:10087000771F881F991F4A95D1F708958F929F92ED
:10088000AF92BF92CF92DF92EF92FF924B015C0149
:100890000E9419046B017C010E9419046C197D09E6
:1008A0008E099F09683E734081059105A8F321E0F8
:1008B000821A9108A108B10888EEC80E83E0D81EFC
:1008C000E11CF11C81149104A104B10429F7FF90EB
:1008D000EF90DF90CF90BF90AF909F908F90089552
:1008E0002FB7F8946091640270916502809166025E
:1008F000909167022FBF0895209183023091840266
:100900002817390771F4909181028091820298171B
:1009100041F0E0918102F0E0ED5DFD4F808190E0DB
:1009200008958FEF9FEF08950895EF92FF920F9330
:100930001F93CF93DF93DC015C96ED90FC905D9765
:10094000E114F10479F481E090E013969C938E9386
:10095000129790E080E0DF91CF911F910F91FF906F
:10096000EF9008955196ED91FC91529750968C918D
:100970005097982F90950FB75E962C915E97122FF7
:10098000127021FD6095F8942081112319F1282B14
:100990002083E7012197F1F728E0462F50E03081CE
:1009A00060FF1AC0382B3083E7012197F1F7BA01B5
:1009B00075956795215089F7112381F080818923EE
:1009C00080830FBF5C968D919C910197F1F781E038
:1009D00090E0C1CF2923DCCF3923E5CF9081892B4B
:1009E000EFCF20918302309184022817390771F4E8
:1009F000809182022091810290E0805C9F4F821B57
:100A0000910960E470E00E94A823089590E080E0DE
:100A10000895209183023091840228173907B9F490
:100A20009091810280918202981789F0E091810271
:100A3000F0E0ED5DFD4F80812091810230E02F5F7D
:100A40003F4F2F7333272093810290E008958FEF5B
:100A50009FEF0895E0918302F0918402E817F9076F
:100A600069F4A389B4899C918589809589238C93A5
:100A7000109284021092830281E0089580E008952C
:100A8000CF93DF93EC011B8E1A8E198E188E1F8A5E
:100A90001E8A8DE991E09D8F8C8F8C858631E0F5E3
:100AA0002DEB30E03F8B2E8B2BE931E0398F288FF7
:100AB0002CE231E03B8F2A8F90916800883008F457
:100AC0004EC021E08E3008F420E081E001C0880FA4
:100AD0002A95EAF7892B809368009C852DE630E003
:100AE000983050F02BE630E09E3030F02CE630E0CD
:100AF000963110F030E020E03C8B2B8B292F30E03A
:100B0000983078F581E001C0880F9A95EAF78D8BCF
:100B10008C8D9D8D0197F1F78A8D9B8D892BE1F04E
:100B20008091830290918402C817D907A9F0009799
:100B300011F00E942A058E8D8E7F8E8F1092820278
:100B400010928102D0938402C0938302EB89FC89C6
:100B500080819D89892B8083DF91CF91089584E0E6
:100B6000B9CF9E3040F42850310981E001C0880F90
:100B70002A95EAF7CCCF2E503109F7CF90E080E0EC
:100B800008958FB7F89480911D028FBF089561E09A
:100B9000FC0184810E948B0380911C0281111092C0
:100BA0001C0208958EBD00000DB407FEFDCF8EB56A
:100BB00008958FEF0C94D2050F931F93CF93DF937B
:100BC000EC010E9470048B010E94D9058F3F69F0EF
:100BD0000E947004601B710B6C177D07A8F380E006
:100BE000DF91CF911F910F91089581E0F9CF8CBDD6
:100BF0009DBD0895CF93DF93EC0180911C0281117C
:100C000009C081E080931C02809124059091250504
:100C10000E94F70560E08C81DF91CF910C948B03EB
:100C20008F929F92AF92BF92FF920F931F93CF9399
:100C3000DF93EC01F62E49015A018E81882389F059
:100C40008F8198859C012F5F3F4F38872F8382309B
:100C5000924018F40E94D905F3CFCE010E94C70537
:100C60001E82CE010E94FA058CE291E00E94DC0512
:100C70008F2D80640E94D20508E110E0D501C401E7
:100C8000002E04C0B695A795979587950A94D2F73C
:100C90000E94D20508501109083F8FEF180771F71D
:100CA00085E9FF2021F028E087E8F2128FEF0E940B
:100CB000D20510E00E94D9058A8787FF04C01F3F34
:100CC00011F01F5FF7CFDF91CF911F910F91FF9030
:100CD000BF90AF909F908F900895AF92BF92CF92A8
:100CE000DF92EF92FF920F931F93CF93DF93EC016C
:100CF0006901C801820F931F8130924050F58E81A7
:100D0000882379F088819981AA81BB81841795070E
:100D1000A607B70731F48F819885C816D90608F061
:100D200042C0488359836A837B838B85833039F043
:100D300089E0440F551F661F771F8A95D1F79A01E6
:100D4000AB0161E1CE010E941006882389F083E0A7
:100D50008D83CE010E94C70580E0DF91CF911F9166
:100D60000F91FF90EF90DF90CF90BF90AF900895DC
:100D70000E9470045B010E94D9058A878F3F69F445
:100D80000E9470046A197B096D327140A0F38FE0F4
:100D90008D83CE010E94C705DCCF8E3F89F4188673
:100DA0001F8281E08E838F8198858C159D0550F47C
:100DB0000E94D9058F819885019698878F83F3CFFC
:100DC0008DE0E6CF6701E00EF11E0E94D905F60125
:100DD00081936F01EE15FF05C1F78F819885080F8C
:100DE000191F18870F838985882319F00115124070
:100DF000A0F08E81882389F08F8198859C012F5FD8
:100E00003F4F38872F838230924018F40E94D905D3
:100E1000F3CFCE010E94C7051E8281E09ECFCF9204
:100E2000DF92EF92FF920F93CF93DF93EC01690172
:100E300082E1411551056105710599F08B8583307B
:100E400039F089E0440F551F661F771F8A95D1F747
:100E50009A01AB0168E1CE010E941006882319F0C7
:100E600084E08D832DC08EEF0E94D20576018EEF37
:100E7000D81AF70181917F010E94D205EC14FD047C
:100E8000C1F78FEF0E94D2058FEF0E94D2050E941A
:100E9000D9058A878F71853071F4011116C0CE0192
:100EA0000E94C70581E0DF91CF910F91FF90EF90F5
:100EB000DF90CF90089581E18D83CE010E94C70518
:100EC000CE010E94C70580E0EECF88E592E00E9447
:100ED000DC05811102C085E1C4CF20E030E0A9012A
:100EE0006DE0CE010E941006882311F084E1B9CF95
:100EF0000E94D9058111FACFD2CF0F9340911F02E2
:100F000050912002609121027091220241155105F9
:100F10006105710599F0082F25E832E0809185047C
:100F2000909186040E940F07882349F010921F02B7
:100F300010922002109221021092220281E00F9161
:100F400008950F93CF93C82F80911E02811105C081
:100F5000C1E08C2FCF910F910895409100015091E5
:100F6000010160910201709103010C2F25E832E02C
:100F700080918504909186040E940F07811102C020
:100F8000C0E0E7CFCC2321F381E00E947D078823D6
:100F9000B9F310921E02DDCF8F929F92AF92BF9253
:100FA000EF92FF920F931F93CF934B015C01C42FDD
:100FB0008091000190910101A0910201B091030183
:100FC00088159905AA05BB0551F181E00E94A1078A
:100FD00081110BC080E0CF911F910F91FF90EF9096
:100FE000BF90AF909F908F90089585E8E82E82E0A3
:100FF000F82E00E012E030E020E0B501A40180917D
:101000008504909186040E946D06882319F38092CE
:10101000000190920101A0920201B092030140915F
:101020001E024C2B40931E0281E0D5CF8F929F92DF
:10103000AF92BF92CF92DF92EF92FF92CF9326E2D0
:1010400035E03093860420938504882309F46DC02D
:1010500040E060E070E0CB010E94CC0781110BC042
:1010600080E0CF91FF90EF90DF90CF90BF90AF9056
:101070009F908F900895809143048F7789F7809196
:101080004F0490915004A0915104B09152048436C1
:101090009105A105B10520F3C0904B04D0904C04FC
:1010A000E0904D04F0904E04C114D104E104F10429
:1010B000B9F240E0C701B6010E94CC07882381F253
:1010C00080919002909191028115924049F6A091F1
:1010D0009502AA2329F260919302709194026115FE
:1010E000710509F4BDCF20919202222309F4B8CFF3
:1010F000A09344052093360590E080E030E0E1E0E5
:10110000F0E0C82FAF01082E02C0440F551F0A940B
:10111000E2F72417350769F041E0480F019689305E
:10112000910579F740933F059BCFC12CD12C7601D7
:10113000C0CF80933F0520919B0230919C0250E0EC
:1011400040E02115310541F42091A9023091AA0215
:101150004091AB025091AC02209337053093380593
:101160004093390550933A0546015701860E971E64
:10117000A11CB11C8092450590924605A09247059E
:10118000B0924805E0919602F0919702F0934B05DA
:10119000E0934A05B0E00E943322DC01CB01880DC8
:1011A000991DAA1DBB1D80934C0590934D05A093DE
:1011B0004E05B0934F0525E0EE0FFF1F2A95E1F78E
:1011C000E150FE4FEF2FFF27E6958E0F9F1FA11DC9
:1011D000B11D8093400590934105A0934205B093C3
:1011E00043058090980290909902B12CA12C811413
:1011F000910441F48090A5029090A602A090A702CD
:10120000B090A802C81AD90AEA0AFB0AC80CD91C6D
:10121000EA1CFB1C04C0F694E794D794C794CA95C3
:10122000D2F7C0923B05D0923C05E0923D05F0928A
:101230003E0585EFC8168FE0D806E104F10428F4D6
:101240008CE08093490581E00CCF80E125EFC21648
:101250002FEFD206E104F104A0F38091B102909146
:10126000B202A091B302B091B40280934C05909366
:101270004D05A0934E05B0934F0580E2E2CF4F920B
:101280005F926F927F928F929F92AF92BF92CF9216
:10129000DF92EF92FF920F931F93CF93DF93EC01B6
:1012A000423051056105710590F480E0DF91CF91E6
:1012B0001F910F91FF90EF90DF90CF90BF90AF9074
:1012C0009F908F907F906F905F904F900895898549
:1012D0009A85AB85BC850196A11DB11D8417950724
:1012E000A607B70710F3CB88DC88ED88FE888F89C6
:1012F000803109F042C0BB27A72F962F852F4801C8
:1013000059012A013B01C80ED91EEA1EFB1E80911D
:10131000000190910101A0910201B0910301C81652
:10132000D906EA06FB0699F58F898031C1F5B3012C
:10133000A201552766277727440F551F4B575D4F4E
:10134000FA019182808280911E02816080931E0248
:101350008A89823080F08D819E81AF81B8858C0D25
:101360009D1DAE1DBF1D80931F0290932002A09370
:101370002102B093220281E099CFDB01CA01E7E0AC
:10138000B695A79597958795EA95D1F7B8CF40E0A0
:10139000C701B6010E94CC078111C6CF86CFB30129
:1013A000A2014F77552766277727440F551F440F13
:1013B000551F4B575D4FFA0180829182A282B38202
:1013C000C2CF8F929F92AF92BF92CF92DF92EF9255
:1013D000FF920F931F93CF93DF93FC01818592853A
:1013E000A385B4850196A11DB11D84179507A60795
:1013F000B70770F480E0DF91CF911F910F91FF90BC
:10140000EF90DF90CF90BF90AF909F908F90089516
:1014100083889488A588B6888789803189F5BB2719
:10142000A72F962F852FE9016A017B018F01BC014F
:10143000CD01680D791D8A1D9B1D80900001909043
:101440000101A0900201B090030186169706A8063C
:10145000B90601F5F8018789803111F5DD24EE2404
:10146000FF24F601EE0FFF1FEB57FD4F80819181A6
:10147000B0E0A0E088839983AA83BB8381E0BBCFDF
:10148000DB01CA01C7E0B695A79597958795CA95E0
:10149000D1F7C9CF40E00E94CC078111DBCFAACFA2
:1014A000E894C7F8DD24EE24FF24F601EE0FFF1FB9
:1014B000EE0FFF1FEB57FD4F80819181A281B38119
:1014C000BF70D8CF4F925F926F927F92AF92BF92D0
:1014D000CF92DF92EF92FF920F931F93CF93DF9300
:1014E00000D000D0CDB7DEB78C0149835A836B831F
:1014F0007C835901C12CD12C7601412C82E0582EDD
:10150000612C712C49815A816B817C819E012F5FF6
:101510003F4FC8010E94E109882339F1F801858510
:10152000A301920104C0220F331F441F551F8A9547
:10153000D2F7DA01C901C80ED91EEA1EFB1E498185
:101540005A816B817C818789803111F188EF9FEF0F
:10155000AFEFBFE0481759076A077B0798F2F5011C
:10156000C082D182E282F38281E00F900F900F90CF
:101570000F90DF91CF911F910F91FF90EF90DF902F
:10158000CF90BF90AF907F906F905F904F900895F5
:1015900088EF9FEFA0E0B0E0DDCFCF93DF93FC01B9
:1015A0002581222321F080E0DF91CF910895EC0185
:1015B00080914905803159F582E08583178A108E24
:1015C000118E128E80914A0590914B05B0E0A0E0FB
:1015D00025E0880F991FAA1FBB1F2A95D1F7838B7F
:1015E000948BA58BB68B82E395E09C8F8B8F81E0EB
:1015F0008C831E821F82188619861A861B861C867B
:101600001D861E861F86188A198A1A8ACDCF8032B7
:1016100051F683E0858340914C0550914D056091D2
:101620004E0570914F05478B508F618F728F9F01D0
:101630002D5E3F4F82E395E00E94620A8111D3CF75
:10164000B2CF8F929F92AF92BF92CF92DF92EF92E2
:10165000FF920F931F93CF93DF93EC018D81811144
:101660000EC080E0DF91CF911F910F91FF90EF901E
:10167000DF90CF90BF90AF909F908F9008950B898F
:101680001C892D893E89041715072607370748F35B
:101690004A015B01823031F48A869B86AC86BD8626
:1016A00081E0E0CF81149104A104B10449F41E82C9
:1016B0001F82188619861A861B861C861D86F0CF07
:1016C0000A851B852C853D85EB8DFC8D858590E0FD
:1016D0000996B901A8014150510961097109082E03
:1016E00004C076956795579547950A94D2F775018A
:1016F0006401E1E0CE1AD108E108F10804C0F694D3
:10170000E794D794C7948A95D2F7C416D506E6060F
:10171000F70620F0012B022B032B11F58F89988DF2
:10172000A98DBA8D8E839F83A887B9878E010A5FA2
:101730001F4FC114D104E104F10409F4ADCF4E816F
:101740005F816885798598018B8D9C8D0E94E10968
:1017500091E0C91AD108E108F1088111EACF81CFDF
:10176000C41AD50AE60AF70AE1CF3F924F925F9278
:101770006F927F928F929F92AF92BF92CF92DF92A1
:10178000EF92FF920F931F93CF93DF93CDB7DEB706
:101790002C970FB6F894DEBF0FBECDBF5C01DC0105
:1017A0005B968D909C905C9716964D905D906D9099
:1017B0007C901997411451046104710409F468C0C4
:1017C000BFEF4B1A5B0A6B0A7B0A312CF40181854F
:1017D0009285A385B4859C01AD012F5F3F4F4F4F8C
:1017E0005F4F29873A874B875C87730162011D82AF
:1017F0001E821F821886F40181859285A385B48597
:101800002D813E814F815885281739074A075B078C
:1018100008F056C089859A85AB85BC858C159D05D9
:10182000AE05BF0550F482E0C82ED12CE12CF12C7E
:1018300092E0492E512C612C712C9E012F5F3F4F5D
:10184000B701A601C4010E94E1098823C9F1898179
:101850009A81AB81BC81892B8A2B8B2B09F12601C4
:1018600037019FEF491A590A690A790A2D813E8189
:101870004F8158852F5F3F4F4F4F5F4F2D833E83E2
:101880004F8358873FEFC31AD30AE30AF30AB3CF53
:10189000F40140805180628073803324339496CF6A
:1018A000C414D504E604F70409F70FEF1FEF2FEF78
:1018B0003FE0B701A601C4010E943F09811119C090
:1018C00080E02C960FB6F894DEBF0FBECDBFDF913F
:1018D000CF911F910F91FF90EF90DF90CF90BF902D
:1018E000AF909F908F907F906F905F904F903F90C0
:1018F0000895D50116964D915D916D917C91199742
:10190000411551056105710539F097018601C40142
:101910000E943F098823A1F2D5011696CD92DD924F
:10192000ED92FC921997332051F0D701C601019630
:10193000A11DB11DF40180839183A283B383F501BE
:101940008789908DA18DB28D892B8A2B8B2B39F4B1
:101950008481C78AD08EE18EF28E80688483F501FF
:1019600084818062848381E0ACCF1F93CF93DF9327
:10197000FC0125812223D1F1162FEC01848187FF00
:101980002AC0668577858089918941E00E94CC07CD
:10199000882361F1EA8980E2E89FF0011124EB5786
:1019A000FD4F309719F18D81823040F48B899C89ED
:1019B000AD89BE89848F958FA68FB78F8F89988DBB
:1019C000938F828F8F89988DA98DBA8DB58BA48BBB
:1019D0008C818F778C83111103C08C818F7E8C83D7
:1019E000812FDF91CF911F910C94A10780E0DF91AF
:1019F000CF911F910895FF920F931F93CF93DF9381
:101A0000EC018D81813041F090E080E0DF91CF9159
:101A10001F910F91FF9008958C8181FFF5CF82FD7A
:101A20001BC00091850410918604C8010E94FA052C
:101A30000E94D905F82EC8010E94C7058FEFF81241
:101A4000E3CF8C8185FF1BC060E0CE010E94B50C06
:101A50008C818F7D8C83D8CF4B895C896D897E8901
:101A60008A859B85AC85BD8584179507A607B70732
:101A7000C1F2CE010E94210B8111D3CFC5CF40917D
:101A80001F02509120026091210270912202452B89
:101A9000462B472B21F080E00E947D07B5CF806167
:101AA0008C832A853B85317080E092E0821B930B0A
:101AB000ADCFCF93DF93EC0161E00E94B50C88239A
:101AC00011F01D8281E0DF91CF9108952F923F9216
:101AD0004F925F926F927F928F929F92AF92BF923E
:101AE000CF92DF92EF92FF920F931F93CF93DF93EA
:101AF00000D000D01F92CDB7DEB77C015B01342E41
:101B00005D83DC0115968C911597813009F0CEC06C
:101B100014962C9021FECAC022FCB4C0C32CDD80D8
:101B200022947FE027222094B22DB1702B2ED70172
:101B30001A964D915D916D917C911D97C114D104C0
:101B400009F428C15B968D919C915C97FC0174808F
:101B50007A948A019B0169E0369527951795079538
:101B60006A95D1F770228A011170711020C0011599
:101B70001105E9F416964D915D916D917C9119973F
:101B8000411551056105710509F099C057968D9170
:101B90009D910D90BC91A02D0097A105B10509F074
:101BA000B0C0C7010E94B50B882309F47FC080E054
:101BB00092E0801B910B46018C159D0508F44C01A9
:101BC000D7015B964D915C915C9716968D919D9196
:101BD0000D90BC91A02D0297A109B109FA012585AC
:101BE00004C0880F991FAA1FBB1F2A95D2F74685EC
:101BF000578560897189840F951FA61FB71F9C01A7
:101C0000AD01270D311D411D511D29013A018114DE
:101C100032E0930609F07BC08091000190910101B0
:101C2000A0910201B091030184159505A605B705A1
:101C300059F48FEF9FEFDC01809300019093010135
:101C4000A0930201B0930301022D9501B301A201FB
:101C500080918504909186040E940F07882331F1BA
:101C60009EEFB91AC818D908F70182859385A48513
:101C7000B585880D991DA11DB11D82879387A48705
:101C8000B58755CFF701438954896589768982855F
:101C90009385A485B585481759076A077B0709F41A
:101CA0003DCFC7010E94210B811138CF81E090E028
:101CB000D70113969C938E93129780E007C09E01E4
:101CC0002F5F3F4F0E94E109811102C090E079C06F
:101CD00089819A81AB81BC81F701238D348DF90113
:101CE000278948EF5FEF60E070E0203121F048EF96
:101CF0005FEF6FEF7FE084179507A607B70708F03F
:101D000050CFF70186839783A087B18750CF011505
:101D1000110599F5D7011A964D915D916D917C91C0
:101D20001D9753968D919D910D90BC91A02D4817B4
:101D300059076A077B0708F181E00E94A107882301
:101D400009F4B4CF40920001509201016092020167
:101D50007092030180911E02816080931E02C8016F
:101D60008B579D4FD5019C01280D391DFC012E1765
:101D70003F0759F04D914193FACF41E0C301B201C1
:101D80000E94CC078111EBCF91CF281B390BA20EFB
:101D9000B31E68CFF70183899489A589B689841712
:101DA0009507A607B70738F48481438B548B658B5E
:101DB000768B80688483F701848183FD1AC0832D2C
:101DC0009D810F900F900F900F900F90DF91CF910A
:101DD0001F910F91FF90EF90DF90CF90BF90AF9049
:101DE0009F908F907F906F905F904F903F902F903B
:101DF000089561E0C7010E94B50C882309F456CF0D
:101E0000DECFCF93DF931F92CDB7DEB7698341E07A
:101E100050E0BE016F5F7F4F0E94660D0F90DF9113
:101E2000CF910895FC01DB0112968D919C9113973F
:101E3000938382838DE391E09183808314968C91C8
:101E40001497848315968C911597858316964D91DA
:101E50005D916D917C911997468357836087718757
:101E60001A964D915D916D917C911D974287538794
:101E7000648775871E964D915D916D917C91519708
:101E800046875787608B718B52968C915297828BC5
:101E900053964D915D916D917C915697438B548BE8
:101EA000658B768B57964D915D916D917C915A978C
:101EB000478B508F618F728F5B968D919C91948F21
:101EC000838F08950895FC01818D928D009719F0FC
:101ED00061E00C94B50C0895DC015996ED91FC91EC
:101EE0003097B9F083899489A589B689428553854D
:101EF00064857585841B950BA60BB70B811520E8AF
:101F00009207A105B10538F08FEF9FE7A0E0B0E0A0
:101F1000089590E080E00895DC0159968D919C91A0
:101F2000009739F0DC01ED91FC910480F581E02D02
:101F3000099490E080E00895CF93DF93EC01E98D60
:101F4000FA8D309749F481E090E09B838A8390E09A
:101F500080E0DF91CF91089513821282898D9A8D4E
:101F60000E94660DE98DFA8D22813381232B59F76A
:101F7000F0CFCF93DF931F92CDB7DEB76983DC013B
:101F8000ED91FC910280F381E02D41E050E0BE0133
:101F90006F5F7F4F09950F90DF91CF9108952F923A
:101FA0003F924F925F926F927F928F929F92AF92E9
:101FB000BF92CF92DF92EF92FF920F931F93CF9336
:101FC000DF9300D01F92CDB7DEB7FC018581811170
:101FD00018C08FEF9FEF0F900F900F90DF91CF9170
:101FE0001F910F91FF90EF90DF90CF90BF90AF9037
:101FF0009F908F907F906F905F904F903F902F9029
:102000000895848180FFE5CF438954896589768965
:1020100082859385A485B585312C212C48175907D5
:102020006A077B0719F022242394312C6F012101C8
:10203000CE0101963C01DF011696BB83AA834114B1
:10204000510409F4C5C0F601428553856485758540
:102050004A01F1E09F22D6015B968D919C915C979D
:102060008A019B01E9E03695279517950795EA9532
:10207000D1F71596EC91E230E9F5FC01628D738D94
:10208000848D958D600F711F821F931FA12C22E0FC
:10209000B22EA818B9084A145B0408F45201F601DC
:1020A000248126FD04C0A114F2E0BF0671F4009162
:1020B00000011091010120910201309103010617E6
:1020C00017072807390709F05EC040E00E94CC07D7
:1020D000882309F47ECFC4018B579D4FD3019C0107
:1020E0002A0D3B1DFC012E173F0709F46CC04191DE
:1020F0004D93F9CFDC011496BC90BA94B0228114B0
:10210000910479F4B1100DC0452B462B472B69F58E
:10211000F6018789908DA18DB28D86839783A087E4
:10212000B187D6015B96ED91FC915C9716966D9107
:102130007D918D919C911997625071098109910946
:10214000258504C0660F771F881F991F2A95D2F72F
:102150000685178520893189600F711F821F931FA3
:102160006B0D711D811D911D91CFD60116964D915C
:102170005D916D917C9119972A813B810E94E109C3
:102180008111CFCF26CF730185019401AB01BC0132
:1021900080918504909186040E946D06882309F43D
:1021A00018CF6A0C7B1CF60182859385A485B585C2
:1021B0008A0D9B1DA11DB11D82879387A487B587BA
:1021C0004A185B083CCF281B390B620E731EEBCFFD
:1021D0002A94232809F0FDCE898190E0FCCEFC01F1
:1021E000818D928D009711F00C94CF0F8FEF9FEFA0
:1021F00008950F931F93CF93DF93EC01898D9A8DF0
:1022000010E000E0009799F00E94CF0F8C010F3F83
:10221000100769F0898D9A8DFC014285538564858C
:10222000758541505109610971090E94210BC8014E
:10223000DF91CF911F910F9108958EE696E00E9455
:10224000F104892B51F08EE696E00E940905682F73
:1022500087E894E00E94CC02F0CF08950F931F937B
:10226000CF93DF93082F162FD42FC8E06D2F661F52
:102270006627661F802F0E948B03DD0F61E0812F90
:102280000E948B0360E0812F0E948B03C15071F785
:10229000DF91CF911F910F9108951F93CF93DF93FB
:1022A000182FCFE6D5E061E089810E94B90361E093
:1022B00089810E948B0361E088810E948B0360E02A
:1022C00089810E948B0360E088810E948B03412FEB
:1022D00068818981DF91CF911F910C942E111F93FA
:1022E000CF93DF93182FCFE6D5E061E089810E947C
:1022F000B903412F68818981DF91CF911F910C949F
:102300002E11CF93DF9390917805992349F194EEA4
:102310009093BC009091BC0097FFFCCF90ED909300
:10232000BB0094EC9093BC009091BC0097FFFCCF55
:102330008093BB0084EC8093BC008091BC0087FF3D
:10234000FCCF6093BB0084EC8093BC008091BC0008
:1023500087FFFCCF84E98093BC00DF91CF91089583
:10236000C62FD82F80ED0E944D110E94EA038D2FB9
:102370000E946F110E94EA038C2F0E946F110E942D
:10238000EA03DF91CF910C94FF03DF92EF92FF926B
:102390000F931F93CF93DF9380917805882309F4DF
:1023A000AEC084EE8093BC008091BC0087FFFCCF60
:1023B00080ED8093BB0084EC8093BC008091BC00D6
:1023C00087FFFCCF1092BB0084EC8093BC0080910F
:1023D000BC0087FFFCCF84EE8093BC008091BC00E2
:1023E00087FFFCCF81ED8093BB0084EC8093BC0021
:1023F0008091BC0087FFFCCFE1E7F5E088E795E03E
:1024000034EC3093BC002091BC0027FFFCCF20911E
:10241000BB0021938E179F07A1F784E88093BC002F
:102420008091BC0087FFFCCF84E98093BC002091A1
:102430007105822F829587709AE02F70899F200DF9
:10244000112430917205832F829587703F70899F88
:10245000300D112460917305862F8F70462F50E048
:1024600067FFB7C065FB442740F9FCE04F9F800D34
:102470001124482F80E34A3028F0842F6AE00E941C
:102480009C23805D809306015AE0842F652F0E9473
:102490009C23905D909307018AE38093080180E379
:1024A0003A3020F0832F0E949C23805D80930901A5
:1024B0004AE0832F642F0E949C23905D90930A0131
:1024C0008AE380930B0180E32A3020F0822F0E9460
:1024D0009C23805D80930C01822F6AE00E949C23E4
:1024E000905D90930D0110920E0186E091E0DF91D6
:1024F000CF911F910F91FF90EF90DF90089580EDA5
:102500000E944D110E94EA0380E00E946F110E9418
:10251000EA0381ED0E944D110E94EA0371E7E72E64
:1025200075E0F72ED0E0C0E060E0809170050E9479
:10253000B90307E010E0D12C61E080916F050E94A3
:102540008B03809170050E9462039927002E01C0C1
:10255000880F0A94EAF7D82A60E080916F050E94FC
:102560008B030150110940F7F701D1927F0180914F
:10257000700561E0C630D10519F10E94B90360E031
:1025800080916F050E948B0360E0809170050E942E
:102590008B0361E080916F050E948B0360E0809166
:1025A0006F050E948B0360E0809170050E94B90363
:1025B0002196C730D10509F0B7CF0E94FF0337CF6E
:1025C0000E94B90360E080916F050E948B0361E077
:1025D000DCCF64E0559547956A95E1F74370499FD4
:1025E000800D112446CFCF92DF92EF92FF921F937E
:1025F000CF93DF93EC0180E2689FF0011124EB5749
:10260000FD4F9385917161F0842F827449F080E0D1
:10261000DF91CF911F91FF90EF90DF90CF900895C1
:10262000142F6A8B8091000190910101A091020109
:10263000B09103018E879F87A88BB98BC488D588FA
:10264000F12CE12C7601DD24CC24CF8AD88EE98EC2
:10265000FA8E828D938DB0E0A0E0AC01BD014C29D3
:102660005D296E297F294F8B588F698F7A8F8385DB
:102670008871B1F4848D958DA68DB78D8B8B9C8BD5
:10268000AD8BBE8B81E08D831F701C831E821F82E9
:10269000188619861A861B861C861D8681E0B8CF8F
:1026A000803109F0B4CF9E012D5E3F4F8B8D9C8D04
:1026B0000E94620A882309F4AACF84E0E4CFFB01D8
:1026C00001900020E9F73197AF01461B570BDC0161
:1026D000ED91FC910280F381E02D09948F929F92FD
:1026E000AF92BF92EF92FF920F931F93CF93DF931E
:1026F000CDB7DEB7A1970FB6F894DEBF0FBECDBF42
:102700007C01FA01CB0119A2223008F42AE08E01E3
:102710000F5D1F4F822E912CB12CA12CBF01A50162
:1027200094010E94BC23F901CA016A300CF5605D76
:10273000D8016E938D01232B242B252B79F790E064
:1027400080E0109721F0BD01C7010E945F13A196A0
:102750000FB6F894DEBF0FBECDBFDF91CF911F91B2
:102760000F91FF90EF90BF90AF909F908F90089542
:10277000695CDECFCF92DF92EF92FF920F931F93AF
:10278000CF93DF9377FF21C06A017B01EC01E881E1
:10279000F9810190F081E02D6DE209958C014427CB
:1027A0005527BA014C195D096E097F092AE0CE014F
:1027B0000E946E13800F911FDF91CF911F910F9197
:1027C000FF90EF90DF90CF9008952AE0DF91CF91B6
:1027D0001F910F91FF90EF90DF90CF900C946E13AC
:1027E0004F925F926F927F928F929F92AF92BF9221
:1027F000CF92DF92EF92FF920F931F93CF936B01D3
:102800007C01742EAC019B010E94972367E571E067
:10281000811126C046015701E894B7F82FEF3FEF2A
:102820004FE75FE7C501B4010E94972381110CC0F7
:102830002FEF3FEF4FE75FE7C501B4010E940F2183
:102840006BE571E0181664F02FEF3FEF4FE75FE4A0
:10285000C701B6010E9492231816ACF46FE571E02F
:1028600087E894E0CF911F910F91FF90EF90DF9058
:10287000CF90BF90AF909F908F907F906F905F9020
:102880004F900C945F132FEF3FEF4FE75FECC701C2
:10289000B6010E940F2187FDE1CF20E030E0A901C1
:1028A000C701B6010E940F2110E000E087FF0AC0B7
:1028B0006DE287E894E00E94CC028C01F7FAF09474
:1028C000F7F8F094C0E060E070E080E09FE37C16F1
:1028D00041F020E030E040E251E40E94F122CF5F7D
:1028E000F6CFA70196010E9485222B013C010E9490
:1028F00063234B015C012AE0BC01A40187E894E05A
:102900000E946E137C01E00EF11ECC23D1F1C501B3
:10291000B4010E9414219B01AC01C301B2010E94C9
:1029200084224B015C016EE287E894E00E94CC02B5
:10293000E80EF91EC15028F120E030E040E251E4F9
:10294000C501B4010E9475212B013C010E94632343
:102950004B01B12CA12C2AE0B501A40187E894E039
:102960000E946E13E80EF91EC501B4010E941421E5
:102970009B01AC01C301B2010E9484224B015C01A6
:10298000D9CFC701CF911F910F91FF90EF90DF90AA
:10299000CF90BF90AF909F908F907F906F905F90FF
:1029A0004F90089563E671E00C945F130F931F93AB
:1029B000CF93DF938C01D0E0C0E06115710519F071
:1029C0000E945F13EC01C8010E94D2148C0F9D1F5E
:1029D000DF91CF911F910F9108950F931F93CF9384
:1029E000DF93EC010E9408028C01CE010E94D214F8
:1029F000800F911FDF91CF911F910F910895CF9379
:102A0000DF93EC0188819981009711F00E94942452
:102A1000198218821D821C821B821A82DF91CF913B
:102A20000895FC0180819181009711F00C94942409
:102A300008950F931F93CF93DF93EC0188819981C1
:102A4000009759F02A813B812617370730F081E043
:102A5000DF91CF911F910F9108958B016F5F7F4F91
:102A60000E941D25009759F0998388831B830A8350
:102A70002C813D81232B59F7FC011082E8CF80E0A7
:102A8000E7CFEF92FF920F931F93CF93DF93EC0169
:102A9000FB01E080F180E114F10411F10481158162
:102AA00001151105A9F08C819D81080F191FB8012E
:102AB000CE010E941915882399F0288139818C81D3
:102AC0009D81B701820F931F0E94F0251D830C8307
:102AD000CE01DF91CF911F910F91FF90EF9008955C
:102AE000CE010E94FF14F4CFEF92FF920F931F9339
:102AF000CF93DF93EC017B018A01BA010E94191583
:102B000081110BC0CE010E94FF14CE01DF91CF9145
:102B10001F910F91FF90EF9008951D830C83B701D3
:102B2000888199810E94F025F0CFEF92FF920F9358
:102B30001F93CF93DF93CDB7DEB7A2970FB6F8946C
:102B4000DEBF0FBECDBF8C01CB01BA01F8011182EF
:102B5000108213821282158214822AE0AE014F5F26
:102B60005F4F7A010E94CE20F70101900020E9F723
:102B70003197AF014E195F09B701C8010E94741562
:102B8000A2960FB6F894DEBF0FBECDBFDF91CF91F6
:102B90001F910F91FF90EF9008953F924F925F9297
:102BA0006F927F928F929F92AF92BF92CF92DF925D
:102BB000EF92FF920F931F93CF93DF93CDB7DEB7C2
:102BC0002B970FB6F894DEBF0FBECDBF7C01FE0180
:102BD0003196CE010C966F0130E23193E817F90778
:102BE000E1F7DA0130E087E09D91B92E992309F4ED
:102BF0003CC09E32F1F48A30C9F480E02B960FB6C7
:102C0000F894DEBF0FBECDBFDF91CF911F910F9122
:102C1000FF90EF90DF90CF90BF90AF909F908F90FC
:102C20007F906F905F904F903F90089538E08AE0DA
:102C3000DBCFE8E6F0E04491442321F03196941391
:102C4000FACFDBCF8317C8F24FED490F4E35A8F608
:102C50004FE9490F4A3118F440EEB42EB90EF6018F
:102C6000E30FF11DB0823F5FBFCF8981803229F22F
:102C7000322E8B01DB015B968D919C915C97F70165
:102C8000948F838F16961D921D921D921C921997F8
:102C9000FB011286138614861586F80182859385BA
:102CA000A485B585438954896589768984179507F4
:102CB000A607B70708F04DC025E0B695A7959795EC
:102CC00087952A95D1F7F82FFF70AF2ED80115966A
:102CD0008C91823008F491CFC8010E94CF0F97FDEC
:102CE0008CCFF80182859385A485B5854F96A11D6B
:102CF000B11D82879387A487B587F0E2AF9EB001AC
:102D000011246B577D4F6115710509F476CFDB01F6
:102D10008C91882341F0853E09F062C0BB2029F0E8
:102D2000BB24B394BACFB1100EC0F701A28A809130
:102D3000000190910101A0910201B09103018687E9
:102D40009787A08BB18BDB018C918111E9CFBB24DC
:102D5000B394832D8271823109F04FCFBB2009F4E7
:102D60004DC0F701668577858089918941E00E9491
:102D7000CC07882309F441CFD70152968C91B0E259
:102D80008B9FC00111248B579D4F009709F435CFBD
:102D9000FC013A9626E1DF011D922A95E9F72BE026
:102DA000F601DC0101900D922A95E1F721E238E26B
:102DB000FC01318B208B40E058E057874687338BEE
:102DC000228B318F208F578B468B81E00E94A10789
:102DD000882309F412CF432DD70152966C910AC073
:102DE0004BE050E0C6010E94DA25892B09F055CF4F
:102DF000432D6A2DC7010E94F31200CFF80185818F
:102E0000823009F4FACEC8010E94B50B882309F478
:102E1000F4CED8015B96ED91FC915C9716968D905F
:102E20009D90AD90BC901997B2E08B1A9108A108C3
:102E3000B108858504C0880C991CAA1CBB1C8A9506
:102E4000D2F786859785A089B189880E991EAA1E1A
:102E5000BB1E848124013501480E511C611C711C6C
:102E600084149504A604B70409F1E1E04E1A510850
:102E70006108710881E00E94A107882309F4BDCE92
:102E8000E5E8F2E0119285E894E08E179F07D1F70C
:102E90004092000150920101609202017092030180
:102EA00080911E02816080931E02DACFD8015B966A
:102EB000ED91FC91258580E092E0A0E0B0E004C0B7
:102EC000880F991FAA1FBB1F2A95D2F7F8014389C3
:102ED000548965897689840F951FA61FB71F838B38
:102EE000948BA58BB68BD70152961C9285E892E005
:102EF0004FCFEF92FF920F931F93CF93DF93EC018D
:102F00007B018A011B821A8288EE93E0A0E0B0E088
:102F10008C839D83AE83BF8389E491E0998388830A
:102F20008DE190E00E94F8239A8F898F009779F0C5
:102F30002DE1F701DC0101900D922A95E1F74CE0BB
:102F400050E0B801CE010C960E94F725188EDF9153
:102F5000CF911F910F91FF90EF9008951F920F92C4
:102F60000FB60F9211242F933F934F935F936F935C
:102F70007F938F939F93AF93BF93EF93FF9387E8D4
:102F800094E00E94AA02FF91EF91BF91AF919F91AF
:102F90008F917F916F915F914F913F912F910F9002
:102FA0000FBE0F901F9018951F920F920FB60F92A1
:102FB00011242F938F939F93EF93FF93E0919704A6
:102FC000F09198048081E0919D04F0919E0482FD2F
:102FD0001BC090818091A0048F5F8F732091A1040A
:102FE000821741F0E091A004F0E0E957FB4F958F84
:102FF0008093A004FF91EF919F918F912F910F905B
:103000000FBE0F901F9018958081F4CF1F920F92E2
:103010000FB60F9211242F933F938F939F93AF93EB
:10302000BF938091640290916502A0916602B09175
:1030300067023091630223E0230F2D3758F5019684
:10304000A11DB11D209363028093640290936502D9
:10305000A0936602B0936702809168029091690222
:10306000A0916A02B0916B020196A11DB11D8093DF
:10307000680290936902A0936A02B0936B02BF91B9
:10308000AF919F918F913F912F910F900FBE0F9015
:103090001F90189526E8230F0296A11DB11DD2CFCF
:1030A0001F920F920FB60F9211242F933F934F93BD
:1030B0005F936F937F938F939F93AF93BF93EF93A0
:1030C000FF93E0918302F0918402309749F0A68546
:1030D000B7858585968D91FF14C09C918923A1F4B5
:1030E000FF91EF91BF91AF919F918F917F916F91E0
:1030F0005F914F913F912F910F900FBE0F901F90B6
:1031000018959C91892361F7A389B4899C9185893D
:10311000809589238C93868997890197F1F7608D33
:10312000718DA685B785558538E020E0CB010197E4
:10313000F1F7822F90E095958795282F4C914523A4
:1031400009F02068315091F7868D81FD209580919E
:10315000820290E001968F7399273091810238178F
:1031600099F0A0918202B0E0AD5DBD4F2C938093A9
:103170008202828D938D0197F1F7A389B4898C9196
:103180009589892B8C93ACCF868D8160868FF1CF0A
:103190000F931F93CF93DF93EC01162F042F1B8205
:1031A0001A8288EE93E0A0E0B0E08C839D83AE832A
:1031B000BF8389E191E0998388831F8A1E8A198ED3
:1031C000188E1B8E1A8E1D8E1C8E6E8D6E7F6D7FDF
:1031D0006E8F6695617081E06827842F0E948B0353
:1031E00061E0802F0E94B903802F90E0FC01EC5534
:1031F000FC4FE491E88BFC01E057FC4FE491F0E0D8
:10320000EE0FFF1FEA57FC4F859194919A8B898BA3
:1032100060E0812F0E94B9038E8D81FD04C061E0C2
:10322000812F0E948B031C87812F90E0FC01EC55BD
:10323000FC4FE491ED87FC01E057FC4FE491F0E096
:10324000EE0FFF1FE458FC4F859194919F878E8766
:10325000DF91CF911F910F910895CF92DF92EF925E
:10326000FF92E7E8F4E01382128288EEC82E83E032
:10327000D82EE12CF12CC482D582E682F7828BE233
:1032800091E09183808385EC90E09587848784EC3E
:1032900090E09787868780EC90E0918B808B81EC23
:1032A00090E0938B828B82EC90E0958B848B86EC04
:1032B00090E0978B868B118E128E138E148EE4E223
:1032C000F5E080E580831182E6E2F5E01582168262
:1032D0001186138682E090E0A0E0B0E084879587B5
:1032E000A687B78713A215A614A68DE391E093A72E
:1032F00082A717A649E068E08EE696E00E94C8180B
:10330000E1ECF5E0108211821382128214821582A0
:1033100016821782108612861186138614861586E9
:1033200016861786118A108A128A138A148A158AB9
:10333000168A108E178A118E128E138E148E158E89
:1033400012A213A214A215A216A217A210AA11AAC1
:1033500012AA13AA14AA15AA16AE17AE1092050641
:1033600010920606109207061092080610920D069B
:1033700010920E0610921306109214061092150663
:103380001092160610921B0610921C06109221062F
:1033900010922206109223061092240610922906FB
:1033A00010922A0610922F061092300610923106C3
:1033B00010923206109237061092380610923D068F
:1033C00010923E0610923F0610924006109245065B
:1033D0001092460682E0809356061092570610928D
:1033E00058061092590610925B0610925A061092D7
:1033F0005D0610925C0610925E0610925F061092B7
:103400006006109261061092620610926306109296
:103410006406109265061092660610926706109276
:1034200068061092690610926A0610926B06109256
:103430006C0610926D061092470644E065E082EA41
:1034400095E00E94C818E7E8F5E013821282C48272
:10345000D582E682F78289E491E091838083128E9F
:10346000118E148610928605EFE6F5E082E18183E5
:1034700083E18083FF90EF90DF90CF900895CF930A
:10348000DF93CDB7DEB7C257D1090FB6F894DEBFD0
:103490000FBECDBF789484B5826084BD84B5816051
:1034A00084BD85B5826085BD85B5816085BD80910F
:1034B0006E00816080936E00109281008091810087
:1034C000826080938100809181008160809381007F
:1034D000809180008160809380008091B100846041
:1034E0008093B1008091B00081608093B0008091A2
:1034F0007A00846080937A0080917A008260809361
:103500007A0080917A00816080937A0080917A00BD
:10351000806880937A001092C1008EE696E00E9447
:10352000400582EA95E00E944005E0919704F09101
:10353000980482E08083E0919304F09194041082D7
:10354000E0919504F09196048FEC808310929F0493
:10355000E0919B04F0919C0486E08083E0919904C3
:10356000F0919A04808180618083E0919904F091C8
:103570009A04808188608083E0919904F0919A0494
:10358000808180688083E0919904F0919A04808121
:103590008F7D808380917005823109F0D3C0809146
:1035A0006F05833109F0CEC081E08093780561E03A
:1035B00082E10E948B0361E083E10E948B03809192
:1035C000B9008E7F8093B9008091B9008D7F809380
:1035D000B9008CE08093B80085E08093BC0062E184
:1035E00082E00E94811160E381E00E94811160E02D
:1035F00080E00E94811161E286E00E94811167E013
:1036000085E00E94811168E284E00E94811160E0FF
:1036100087E00E94B90360E081E10E94B90363EC96
:1036200070E087E894E00E940802809155058823A5
:1036300021F080E595E00E94590D1092310510921D
:103640002F0510922C0510922B058AE080932A05F5
:103650000E9470048B0161E080912A050E94B903E9
:1036600061E080912A050E948B03FFB6F894809157
:103670006C02811127C0EAE9F3E08491EEEAF3E0FD
:103680009491E82FF0E0EE0FFF1FE457FF4FA59154
:10369000B491EC91E92321F461E08AE00E948B036C
:1036A00061E08AE00E94B9038CB580618CBD8CB565
:1036B00080648CBD61E08DE00E94B90361E08BE025
:1036C0000E94B90380916C028F5F80936C02FFBEF1
:1036D00082E5809324051092250580912405909120
:1036E00025050E94F7056AE0F62E8FEF0E94D205AD
:1036F000FA94F110FACF86E295E00E94FA0520E0F4
:1037000030E0A90160E086E295E00E941006F82E04
:103710008093300581E0F816E9F00E947004601B88
:10372000710B613D774058F381E080932B0586E271
:1037300095E00E94C7056CEA70E087E894E00E947B
:10374000ED14FFCF1092780561E080916F050E9423
:10375000B90345CF2AEA31E040E050E068E086E274
:1037600095E00E94100682FF2AC0F09231058091F8
:103770003105C12CD12C7601823029F4C12CD12CF9
:10378000E12C40E4F42E20E030E0A90167E386E27A
:1037900095E00E941006A701960169E286E295E095
:1037A0000E941006809330058823D1F00E94700497
:1037B000601B710B613D774030F388E0B6CF54E079
:1037C000F52E0E94D90580933005FA94F110F9CFB7
:1037D0008A3A11F082E0A9CF82E080933105C7CF09
:1037E000809131058230D1F420E030E0A9016AE314
:1037F00086E295E00E941006882311F086E095CFBE
:103800000E94D905807C803C19F483E080933105C7
:103810000E94D9050E94D9050E94D90586E295E04B
:103820000E94C70580E5809324051092250581E05C
:103830000E941608882309F401C480E595E00E94DF
:10384000CD0A882309F477CF67E970E087E894E030
:103850000E94ED1466E970E087E894E00E94ED14A0
:1038600068EE73E080E090E00E943E0430E9832E31
:1038700099249394A12CB12C8E01085A1F4F68EE05
:1038800073E080E090E00E943E04809186058823EA
:1038900009F0F894EAEAF3E0F490E6E9F3E0E49161
:1038A000F0E0EE0FFF1FE458FC4F2590349061E0EC
:1038B00086E00E94B90360E086E00E948B0362E12B
:1038C00070E080E090E00E943E0461E086E00E94AB
:1038D0008B0360E086E00E94B90380E293E0D101AF
:1038E0002C912F2109F4B1C30197C9F78091860566
:1038F0008111FFC3809181058F778093810540906E
:103900008305E89447F840928305C82ED12CF12C0A
:10391000E12CC701B6010E941421609379057093D0
:103920007A0580937B0590937C05512C712C612C3A
:10393000C301B2010E94142160937D0570937E053E
:1039400080937F059093800540927D0250927E0285
:1039500060927F0270928002C0927902D0927A02C5
:10396000E0927B02F0927C0283E480937C00809161
:103970007A00806480937A0080917A0086FDFCCF83
:10398000709078004090790087E00E9462037C018B
:103990001092C20586E39CE7A4EBB2E48093750223
:1039A00090937602A0937702B09378028CE791E629
:1039B000ABEBB1E48093710290937202A093730217
:1039C000B093740210921C0680E090E0A0E8B0E48E
:1039D00080936D0290936E02A0936F02B093700279
:1039E0001C821B828DE3C82E81E0D82EDA82C98228
:1039F0001E82CE0101960E94CD0ABE016F5F7F4FED
:103A0000CE01CB960E94120F19A218A2DF8ECE8E85
:103A10001BA221968FAD219781116DC3D8011396FA
:103A20001C921E92129788EE93E0A0E0B0E0F8019D
:103A300084839583A683B78389E491E0918380830F
:103A4000128E118E1486D80112968D919C91139727
:103A500090938A058093890514968D919D910D9080
:103A6000BC91A02D80938B0590938C05A0938D0520
:103A7000B0938E05F80180859185A285B3858093EA
:103A80008F0590939005A0939105B0939205D8016E
:103A90001C96E3E9F5E08D91819385E0E03AF80723
:103AA000D1F7D8015996ED91FC91F093A105E093DF
:103AB000A005309709F448C38581882309F444C3DD
:103AC0008091040190910501019709F053C06EE5C2
:103AD00073E087E894E00E94ED146BE473E087E8FC
:103AE00094E00E94080260917502709176028091C4
:103AF00077029091780242E00E94F01387E894E008
:103B00000E94D21468E373E087E894E00E94080200
:103B100060917102709172028091730290917402AF
:103B200042E00E94F01387E894E00E94D21465E21C
:103B300073E087E894E00E94080260916D02709142
:103B40006E0280916F029091700242E00E94F01329
:103B500062E273E087E894E00E94ED1461E273E0B2
:103B600087E894E00E94ED1462E771E087E895E051
:103B70000E94D6146AEA71E087E895E00E945F131C
:103B80000E94C511009729F0BC0187E895E00E94CA
:103B90005F1366EB71E087E895E00E945F13409148
:103BA0007D0250917E0260917F027091800287E8D1
:103BB00095E00E94BA136EEB71E087E895E00E94F1
:103BC0005F134091790250917A0260917B0270916B
:103BD0007C0287E895E00E94BA136EEB71E087E8FB
:103BE00095E00E945F13542C472C052C000C6608AE
:103BF0007708B301A20187E895E00E94BA136DEB44
:103C000071E087E895E00E945F13A7010F2C000C7C
:103C1000660B770B87E895E00E94BA1387E895E07A
:103C20000E94D2148091A0059091A105009761F0A7
:103C30000E94590D8091A0059091A1050E949424A5
:103C40001092A1051092A00567E173E087E894E067
:103C50000E9408024091040150910501CA01019699
:103C6000909305018093040170E060E02AE087E80A
:103C700094E00E946E1387E894E00E94D21464E0FE
:103C800073E087E894E00E9408020E94C511BC011D
:103C900087E894E00E94D61461EF72E087E894E030
:103CA0000E94080240917D0250917E0260917F0245
:103CB0007091800287E894E00E94BA1360EC71E092
:103CC00087E894E00E94D6146EED72E087E894E0F5
:103CD0000E9408024091790250917A0260917B0221
:103CE00070917C0287E894E00E94BA1363EC71E063
:103CF00087E894E00E94D6146BEC72E087E894E0C9
:103D00000E940802B301A20187E894E00E94BA135E
:103D100066EC71E087E894E00E94D61461EB72E0F3
:103D2000EF2811F467E972E087E894E00E94ED144F
:103D300064E772E087E894E00E94ED14809104014A
:103D400090910501059709F06CC164E670E080E090
:103D500090E00E943E048EE696E00E94F104892BDA
:103D600049F08EE696E00E940905682F87E894E006
:103D70000E94CC0267E572E08EE696E00E94ED14A8
:103D800064E670E080E090E00E943E046EE472E041
:103D90008EE696E00E94ED1464E670E080E090E02C
:103DA0000E943E0465E472E08EE696E00E94ED1407
:103DB00064E670E080E090E00E943E046BE372E015
:103DC0008EE696E00E94ED1464E670E080E090E0FC
:103DD0000E943E0460E372E08EE696E00E94ED14DD
:103DE00064E670E080E090E00E943E0463E272E0EE
:103DF0008EE696E00E94ED1468EC70E080E090E0C2
:103E00000E943E0467E172E08EE696E00E94ED14A7
:103E100068EC70E080E090E00E943E040E941D117A
:103E20006CED71E08EE696E00E94ED1464E670E0C1
:103E300080E090E00E943E040E941D1163EB71E05F
:103E40008EE696E00E94ED146CE271E080E090E076
:103E50000E943E040E941D1163E971E08EE696E027
:103E60000E94ED1468EC70E080E090E00E943E0457
:103E70000E941D1166E871E08EE696E00E94ED1446
:103E80006CE271E080E090E00E943E040E941D110F
:103E90006FE371E08EE696E00E94ED1468E572E053
:103EA00080E090E00E943E040E941D1160E171E0FC
:103EB0008EE696E00E94ED1460E971E080E090E00B
:103EC0000E943E040E941D114091790250917A0295
:103ED00060917B0270917C02CE0101960E94951543
:103EE00040917D0250917E0260917F02709180022C
:103EF000CE014E960E9495151CAE1BAE1EAE1DAE99
:103F000021961FAE1EAE219746E450E06BEC71E0A7
:103F1000CE01CB960E947415BE01625E7F4FCE012A
:103F2000CB960E9441157C01FC01C480D580F8E04D
:103F3000CF0ED11CB6010E941915811108C1C7010D
:103F40000E94FF14BE016F5F7F4FC7010E944115A1
:103F5000D80111961C921E9213961C921E921297D3
:103F600015961C921E9214978017910759F0FC0128
:103F7000608171816115710529F044815581C80105
:103F80000E947415CE01CB960E941115CE014E965B
:103F90000E941115CE0101960E941115D8011496A8
:103FA0004D915C9115976D917C918EE696E00E9403
:103FB0002C028EE696E00E94D21460E971E080E067
:103FC00090E00E943E040E941D116AE18EE696E098
:103FD0000E9495048EE696E00E94D21464EF71E090
:103FE00080E090E00E943E048EE696E00E94D214AB
:103FF0000E941D116DEE70E08EE696E00E94ED14B9
:104000006BED70E08EE696E00E94080264E670E0D8
:1040100080E090E00E943E040E941D11C8010E94B1
:10402000111580E090E0892B09F429CC0E949602BA
:10403000882309F424CC0E9400001ECC80E00E945A
:104040001608882309F477CBF8CB80E991E0F101D9
:1040500020812F2119F40197D1F748CC80E991E014
:10406000D1012C912F2189F10197D1F73FCC6F2FEE
:10407000222309F43BCCD101FC91FF2119F56623E1
:1040800009F1283271F58417950708F4AC01240171
:104090003501441A550A6108710892E075946794D5
:1040A000579447949A95D1F7369549F4AD2DB0E0E1
:1040B000A758BA4F1896EC93D394E0E030E821501B
:1040C00080E991E0019799F611CCD12CE0E060E015
:1040D00030E8512C412C80E991E040E951E028E2A0
:1040E000CACFBA016419750968177907E8F2E32B9A
:1040F000DBCF7894FFCB27E146E651E0BE01655C5B
:104100007F4FCE014E960E94CD15882309F486CCB0
:10411000CE01CB960E94590D49A95AA96BA97CA939
:10412000CE014E960E94210BBE01625E7F4FCE01F2
:1041300001960E94120F46E651E0BE016F5F7F4F6D
:10414000C8010E9479177FCC6AE572E0F3CDD701F0
:104150002D913C91119714968D919C9162E172E0A2
:10416000820F931F0E94F025F701D582C482EACE08
:10417000CF93DF93C9E1D1E0D093A305C093A2050B
:1041800082EA95E00E942A05D0936F06C0936E06DE
:104190008EE696E0DF91CF910C942A05BB272A305A
:1041A00051F4992342F4BDE2909580957095619504
:1041B0007F4F8F4F9F4F0C94DE20BB27FA01A62F15
:1041C0006217710581059105330B30FB66F0AA2754
:1041D000660F771F881F991FAA1FA21710F0A21B36
:1041E00063953850A9F7A05DAA3308F0A95DA193A3
:1041F00036F7B111B1931082CA010C94FF20DC0193
:10420000FC01672F71917723E1F7329704C07C910D
:104210006D9370836291AE17BF07C8F308950E9433
:10422000512108F481E00895E89409C097FB3EF419
:1042300090958095709561957F4F8F4F9F4F9923F3
:10424000A9F0F92F96E9BB279395F6958795779571
:104250006795B795F111F8CFFAF4BB0F11F460FF31
:104260001BC06F5F7F4F8F4F9F4F16C0882311F089
:1042700096E911C0772321F09EE8872F762F05C09D
:10428000662371F096E8862F70E060E02AF09A9538
:10429000660F771F881FDAF7880F9695879597F92D
:1042A0000895990F0008550FAA0BE0E8FEEF1616C7
:1042B0001706E807F907C0F012161306E407F5071A
:1042C00098F0621B730B840B950B39F40A2661F08E
:1042D000232B242B252B21F408950A2609F4A14031
:1042E000A6958FEF811D811D08950E9488210C9451
:1042F000F9210E94EB2138F00E94F22120F0952351
:1043000011F00C94E2210C94E82111240C942D223C
:104310000E940A2270F3959FC1F3950F50E0551F3C
:10432000629FF001729FBB27F00DB11D639FAA270A
:10433000F00DB11DAA1F649F6627B00DA11D661F59
:10434000829F2227B00DA11D621F739FB00DA11D7A
:10435000621F839FA00D611D221F749F3327A00D34
:10436000611D231F849F600D211D822F762F6A2FD0
:1043700011249F5750409AF0F1F088234AF0EE0F35
:10438000FF1FBB1F661F771F881F91505040A9F762
:104390009E3F510580F00C94E2210C942D225F3F4A
:1043A000E4F3983ED4F3869577956795B795F7959E
:1043B000E7959F5FC1F7FE2B880F911D9695879516
:1043C00097F9089597F99F6780E870E060E0089595
:1043D0009FEF80EC089500240A941616170618061D
:1043E0000906089500240A941216130614060506F9
:1043F0000895092E0394000C11F4882352F0BB0F8A
:1044000040F4BF2B11F460FF04C06F5F7F4F8F4FEC
:104410009F4F089557FD9058440F551F59F05F3F27
:1044200071F04795880F97FB991F61F09F3F79F0D6
:1044300087950895121613061406551FF2CF469558
:10444000F1DF08C0161617061806991FF1CF8695DA
:104450007105610508940895E894BB2766277727BE
:10446000CB0197F908950E947522A59F900DB49FE6
:10447000900DA49F800D911D112408952F923F92BD
:104480004F925F926F927F928F929F92AF92BF9264
:10449000CF92DF92EF92FF920F931F93CF93DF9310
:1044A000CDB7DEB7CA1BDB0B0FB6F894DEBF0FBE6D
:1044B000CDBF09942A88398848885F846E847D84BA
:1044C0008C849B84AA84B984C884DF80EE80FD80BC
:1044D0000C811B81AA81B981CE0FD11D0FB6F89432
:1044E000DEBF0FBECDBFED010895A29FB001B39F07
:1044F000C001A39F700D811D1124911DB29F700DED
:10450000811D1124911D08955058BB27AA270E9490
:104510009C220C94F9210E94EB2138F00E94F22198
:1045200020F039F49F3F19F426F40C94E8210EF49E
:10453000E095E7FB0C94E221E92F0E940A2258F350
:10454000BA17620773078407950720F079F4A6F578
:104550000C942C220EF4E0950B2EBA2FA02D0B01FB
:10456000B90190010C01CA01A0011124FF27591BB8
:1045700099F0593F50F4503E68F11A16F040A22FBE
:10458000232F342F4427585FF3CF4695379527952F
:10459000A795F0405395C9F77EF41F16BA0B620B2E
:1045A000730B840BBAF09150A1F0FF0FBB1F661F75
:1045B000771F881FC2F70EC0BA0F621F731F841FB8
:1045C00048F4879577956795B795F7959E3F08F0DE
:1045D000B0CF9395880F08F09927EE0F97958795A0
:1045E00008950E9405230C94F9210E94F22158F0AD
:1045F0000E94EB2140F029F45F3F29F00C94E22166
:1046000051110C942D220C94E8210E940A2268F387
:104610009923B1F3552391F3951B550BBB27AA277B
:1046200062177307840738F09F5F5F4F220F331FB5
:10463000441FAA1FA9F335D00E2E3AF0E0E832D07D
:1046400091505040E695001CCAF72BD0FE2F29D080
:10465000660F771F881FBB1F261737074807AB0752
:10466000B0E809F0BB0B802DBF01FF2793585F4FC7
:104670003AF09E3F510578F00C94E2210C942D22E3
:104680005F3FE4F3983ED4F3869577956795B795A9
:10469000F7959F5FC9F7880F911D9695879597F9B4
:1046A0000895E1E0660F771F881FBB1F621773072D
:1046B0008407BA0720F0621B730B840BBA0BEE1F42
:1046C00088F7E09508950E94122288F09F5798F08D
:1046D000B92F9927B751B0F0E1F0660F771F881F07
:1046E000991F1AF0BA95C9F714C0B13091F00E9421
:1046F0002C22B1E008950C942C22672F782F882764
:10470000B85F39F0B93FCCF3869577956795B39547
:10471000D9F73EF490958095709561957F4F8F4FB6
:104720009F4F08950E94512108F48FEF08950E9431
:104730005121880B990B0895991B79E004C0991FAA
:10474000961708F0961B881F7A95C9F780950895EB
:1047500097FB072E16F4009407D077FD09D00E942E
:10476000DE2307FC05D03EF4909581959F4F089578
:10477000709561957F4F0895A1E21A2EAA1BBB1B6D
:10478000FD010DC0AA1FBB1FEE1FFF1FA217B3071D
:10479000E407F50720F0A21BB30BE40BF50B661F33
:1047A000771F881F991F1A9469F7609570958095F7
:1047B00090959B01AC01BD01CF010895AA1BBB1BC5
:1047C00051E107C0AA1FBB1FA617B70710F0A61B11
:1047D000B70B881F991F5A95A9F780959095BC0132
:1047E000CD010895EE0FFF1F0590F491E02D09947F
:1047F0000F931F93CF93DF938230910510F482E0E3
:1048000090E0E0918F06F091900630E020E0B0E07B
:10481000A0E0309799F42115310509F44AC0281B0E
:10482000390B24303105D8F58A819B8161157105DA
:1048300089F1FB0193838283FE0111C04081518184
:104840000281138148175907E0F04817590799F476
:10485000109761F012960C93129713961C93329650
:10486000CF01DF91CF911F910F91089500938F0693
:1048700010939006F4CF2115310551F042175307DC
:1048800038F0A901DB019A01BD01DF01F801C1CFB8
:10489000EF01F9CF9093900680938F06CDCFFE0164
:1048A000E20FF31F819391932250310939832883BA
:1048B000D7CF20918D0630918E06232B41F4209185
:1048C00011013091120130938E0620938D062091B4
:1048D0000F01309110012115310541F42DB73EB77C
:1048E0004091130150911401241B350BE0918D066A
:1048F000F0918E06E217F307A0F42E1B3F0B28174A
:10490000390778F0AC014E5F5F4F2417350748F048
:104910004E0F5F1F50938E0640938D0681939193A7
:104920009FCFF0E0E0E09CCFCF93DF930097E9F0DA
:10493000FC01329713821282A0918F06B0919006EB
:10494000ED0130E020E01097A1F420813181820F49
:10495000931F20918D0630918E062817390709F094
:1049600061C0F0938E06E0938D06DF91CF9108959C
:10497000EA01CE17DF07E8F54A815B819E01411508
:104980005105B1F7E901FB83EA8349915991C40FBD
:10499000D51FEC17FD0761F4808191810296840F89
:1049A000951FE90199838883828193819B838A8300
:1049B000F0E0E0E012968D919C9113970097B9F585
:1049C0002D913C911197CD010296820F931F20915A
:1049D0008D0630918E062817390739F6309751F534
:1049E0001092900610928F06B0938E06A0938D06BB
:1049F000BCCFD383C28340815181840F951FC817D8
:104A0000D90761F44E5F5F4F88819981480F591F24
:104A1000518340838A819B81938382832115310551
:104A200009F0B0CFF0939006E0938F069ECFFD0182
:104A3000DC01C0CF13821282D7CFB0E0A0E0E3E266
:104A4000F5E20C9440228C01009751F4CB010E94B6
:104A5000F8238C01C801CDB7DEB7E0E10C945C22ED
:104A6000FC01E60FF71F9C0122503109E217F30702
:104A700008F49DC0D901CD91DC911197C617D707D5
:104A800098F0C530D10530F3CE010497861797070B
:104A900008F3C61BD70B2297C193D1936D937C93D8
:104AA000CF010E949424D6CF5B01AC1ABD0A4C0101
:104AB0008C0E9D1EA0918F06B0919006512C412C1A
:104AC000F12CE12C109731F580918D0690918E0696
:104AD0008815990509F05CC04616570608F058C0BD
:104AE00080910F0190911001009741F48DB79EB70E
:104AF0004091130150911401841B950BE817F9079D
:104B000008F055C0F0938E06E0938D06F90171838D
:104B10006083A0CF8D919C91119712966C90129703
:104B200013967C901397A815B90559F56C0142E0CE
:104B3000C40ED11CCA14DB0420F1AC014A195B0974
:104B4000DA011296159780F0628273825183408356
:104B5000D9016D937C93E114F10471F0D7011396A0
:104B6000FC93EE93129776CF22968C0F9D1FF9013E
:104B700091838083F301EFCFF0939006E0938F064B
:104B800069CF4816590608F42C017D01D3019ACF4C
:104B9000CB010E94F8237C01009749F0AE01B801D7
:104BA0000E94E725C8010E949424870153CF10E09A
:104BB00000E050CFFB01DC0104C08D910190801911
:104BC00021F441505040C8F7881B990B0895FB0110
:104BD000DC0102C001900D9241505040D8F7089579
:104BE000FB01DC0101900D920020E1F70895FB012B
:104BF000DC014150504048F001900D920020C9F76F
:104C000001C01D9241505040E0F7089511E0CDEDF4
:104C1000D1E004C0FE010E94F2232196CE3DD107CF
:064C2000C9F7F894FFCF74
:104C2600FFFFFFFF010078787878787878780000C1
:104C360000910680000000000095042C02BE059439
:104C460004F10409057C0400000000CC022C025982
:104C56000219038A0268027C0200000000010F2C80
:104C660002FB0C620F00000000B90F9C0F8C0F6353
:104C76000F6C0FEF10F9106E616E00696E66006FB3
:104C86007666000D0A00776561746865722E637337
:104C96007600646174655F265F74696D652C546582
:104CA6006D70657261747572652843292C48756D3F
:104CB60069646974792825292C4C696768742866A3
:104CC6006C7578292C5261696E00323032312D3084
:104CD600372D323854002B363A30302C00202C0039
:104CE600204300202500206C757800474554206835
:104CF600747470733A2F2F6170692E7468696E67C9
:104D0600737065616B2E636F6D2F7570646174656A
:104D16003F6170695F6B65793D344C30315A325969
:104D260044534A355059533048266669656C643198
:0C4D36003D00266669656C64323D00009B
:00000001FF
